:020000040800F2
:10000000600F0420250400080B2E0008B92D0008FD
:10001000092E0008352A00082934000800000000D5
:100020000000000000000000000000003103000894
:10003000212D0008000000008D0300081131000888
:100040003F0400083F0400083F0400083F04000884
:100050003F0400083F0400083F0400083F04000874
:100060003F0400083F0400083F0400083F04000864
:100070003F0400083F0400083F0400083F04000854
:100080003F0400083F0400083F0400083F04000844
:100090003F0400083F0400083F0400083F04000834
:1000A0003F0400083F0400083F0400083F04000824
:1000B0003F0400083F0400083F0400083F04000814
:1000C0003F0400083F0400083F0400083F04000804
:1000D0003F0400083F0400083F0400088532000880
:1000E0003F0400083F0400083F0400083F040008E4
:1000F0003F0400083F0400083F0400083F040008D4
:100100003F0400083F040008AD3100083F04000828
:100110003F0400083F040008D93100086532000898
:100120003F0400083F040008F52C00083F040008C5
:100130003F0400083F0400083F0400083F04000893
:100140003F0400083F0400083F0400083F04000883
:100150003F0400083F040008000000003F040008BE
:100160003F0400083F0400080000000000000000F9
:100170003F0400083F0400083F040008000000009E
:10018000000000003F0400083F0400083F0400088E
:100190003F04000800000000000000000000000014
:1001A0000000000000000000000000003F04000804
:1001B0003F040008000000003F04000800000000A9
:1001C000000000000000000000000000000000002F
:1001D00000000000000000003F0400083F04000889
:1001E0003F0400083F0400083F0400083F040008E3
:1001F0003F0400083F0400083F0400083F040008D3
:100200003F0400083F0400083F04000800F002F823
:1002100000F07EF80AA090E8000C82448344AAF122
:100220000107DA4501D100F073F8AFF2090EBAE820
:100230000F0013F0010F18BFFB1A43F0010318471A
:10024000E48C0B00048D0B000A444FF0000C10F8F6
:10025000013B13F0070408BF10F8014B1D1108BF44
:1002600010F8015B641E05D010F8016B641E01F8E4
:10027000016BF9D113F0080F1EBF10F8014BAD1C34
:100280000C1B09D16D1E58BF01F801CBFAD505E052
:1002900014F8016B01F8016B6D1EF9D59142D6D3AC
:1002A000704700000023002400250026103A28BFD4
:1002B00078C1FBD8520728BF30C148BF0B607047D8
:1002C000662929F09982642900F05682632901F099
:1002D0001080732901F01580002070471FB529F0A8
:1002E00081FA9DE8030000F039FD00F05AFB01F0AF
:1002F000E5FA04000020002128F0E4FC401C6060C6
:100300000020002128F0F4FCE0601FBD10B510BDF6
:1003100001F002FC1146FFF7E1FF1FF011FE01F0B2
:1003200051FE03B4FFF7F2FF03BC04F068FC0000C9
:100330002C4B19680868B0E8F04F80F30988BFF3C8
:100340006F8F4FF0000080F31188704700000000AD
:1003500008480068006880F308884FF0000080F3C8
:10036000148862B661B6BFF34F8FBFF36F8F00DFA3
:1003700000BF00BF08ED00E0DFF80C00016841F4A9
:1003800070010160704700BF88ED00E0EFF3098065
:10039000BFF36F8F134B1A681EF0100F08BF20EDCC
:1003A000108A20E9F04F106009B44FF0100080F37C
:1003B0001188BFF34F8FBFF36F8F27F06DFA4FF0A7
:1003C000000080F3118809BC19680868B0E8F04F94
:1003D0001EF0100F08BFB0EC108A80F30988BFF33D
:1003E0006F8F7047A4040020EFF305807047000072
:1003F0000B49D1F800C04A685CF8043B1068184407
:1004000042F8040B8C4528BFA1F1DC0C8A4228BFBE
:10041000A1F1DC02C1F800C04A6020F00040704742
:10042000F4FE03200948804709480047FEE7FEE73D
:10043000FEE7FEE7FEE7FEE7FEE7FEE7FEE7FEE794
:1004400004480549054A064B704700003D31000845
:100450000D02000860FF0320600F042060070420E5
:1004600060070420704770B5064600F05BFC056825
:1004700006F10B0020F00704B4429CBF002070BDC1
:100480002B466A68BAB11068A04210D304F1080183
:1004900088423CBF5068586007D3516810194160CA
:1004A0001168091B016058601460101D70BD13466F
:1004B0005268002AE7D12146284600F03BFC00287C
:1004C000DED170BD70B50446051F00F02BFC00683E
:1004D000002C14BF446870BD002C18BFAC423CBF58
:1004E00020466468F8D301680A18AA4218BF45601C
:1004F00003D12A6805461144016028684119A142C8
:100500001CBF6C6070BD6168696021680844286028
:1005100070BD70B50D460646041F00F003FCD0F810
:1005200000C0C5B1E6B105F10B0020F00703AB42F6
:100530003CBF002070BD2068984238BFDCF8042022
:1005400013D3C11A08292FD3E01840F8041B2360E5
:10055000FFF7B8FF28E03046FFF7B4FF002070BD7A
:100560002846BDE87040FFF77EBF002A18BFA242B0
:100570003CBF94465268F8D30119914216D11168D4
:100580000844984212D3C11A08293CBF2060506821
:1005900008D35168E0184160216812681144C91AF3
:1005A00001602360CCF80400201D70BD181FFFF708
:1005B0005AFF050007D021680A1F211D00F0E3FA49
:1005C000201DFFF77FFF284670BD53EA020C00F0A4
:1005D00069802DE9F04B4FF00006002B1FBFB3FAE6
:1005E00083F503FA05F424FA05F65E4012BF1643BC
:1005F000B2FA82F502FA05F4C5F120051EBF22FA0F
:1006000005FC44EA0C04203556EA044C4FEA144435
:1006100018BF641C4FF000084FF00009904271EBC6
:10062000030C39D3002919BFB1FA81F701FA07F693
:10063000B0FA80F700FA07F6C7F120071EBF20FACC
:1006400007FC46EA0C062037B6FBF4FCA7EB0507CF
:10065000103F07F01F0BCBF120060CFA0BFB2CFA16
:1006600006F644BFB3460026202FA4BF5E464FF0D7
:10067000000B5BEA060C08BF4FF0010B19EB0B09EE
:10068000ABFB027C48EB0608C01B06FB02CC0BFB55
:1006900003CC71EB0C01C1E70B46024641464846CC
:1006A000BDE8F08B13B54FF000004FF00001AFF341
:1006B0000080BDE81C40704710B5044600F02AFBDE
:1006C0000068005DC00602D504F1200010BD204680
:1006D00010BD00000FB4044910B503AA029800F041
:1006E00015FE10BC5DF814FBA00300200FB47CB510
:1006F0000C0009AA009001D02044401E084B7B4406
:1007000069460190089800F0CAFD05461CB100201A
:10071000694600F0D7FD28467CBC5DF814FB00005C
:10072000CD0B000070B50C460546012A05D028788F
:10073000800600D5EA69002302E0012305E05B1C86
:10074000934202D2E05C0028F9D1A869E618C01AE9
:10075000A861286A184428622846AFF3008004E0A4
:10076000D5E9012114F8010B9047B442F8D328468B
:10077000AFF3008070BD00002DE9F0410646002473
:1007800010687529314616A510D0AFF300800028F7
:1007900002DA404213A507E031688A0701D512A5A5
:1007A00002E0490704D511A5012401E0AFF3008060
:1007B00000210A2206F1240709E0B0FBF2FCB0FB9D
:1007C000F2F302FB1C00303078541846491C002814
:1007D000F3D123462A463046BDE8F04100F0F4BA92
:1007E000000000002D0000002B0000002000000091
:1007F0002DE9F05F894604464FF0000ADFF874B136
:10080000FB44C0F820A02046E1688847002874D047
:10081000252806D0D4E901219047206A401C206297
:10082000F1E700265F462046E16888472028054614
:1008300007DB312D05D2781910F8200C08B10643DA
:10084000F1E7B00701D526F00406C4F81CA0002784
:10085000C4F818A02A2D09D0284602F035FF38B375
:1008600004EB8708303DC8F8185019E059F8041B0C
:10087000204604EB87029161E1688847012F054615
:1008800018D1E069002820DA26F020061DE0D8F80B
:10089000180000EB800005EB40003038C8F8180065
:1008A0002046E1688847054602F00EFF0028EED199
:1008B000012F0AD02E2D08D12046E16888477F1CE1
:1008C0000546022F46F02006C4DBA069002803DAA3
:1008D000404246F00106A061F00701D026F0100664
:1008E0006C2D0BD0682D09D04C2D39D06A2D35D008
:1008F000742D35D07A2D33D016E038E0E1682F46DC
:1009000020468847B842054609D16C2F26D04FF4BF
:100910008060E168064320468847054604E06C2F66
:100920001AD04FF4807006430DB3A5F14100192889
:1009300002D8203546F400664A46294620462660FD
:100940004E46FFF7BDFC80B101280BD0F61D26F006
:10095000070000F1080956E74020E4E78020D8E7C7
:100960000020D6E706F104094DE7284652E7206A41
:10097000BDE8F09FAC810B000B4910B5A1F17C02E2
:100980000A4CC2E93712372106E000EB104342F867
:100990002130074B00FB03400B1EA1F10101F4DCE9
:1009A00010BD0120E8E7000094FE0320E119D6669F
:1009B000CD0D0100401ECAB210F8011F8A4202D0BC
:1009C0000029F9D10020704740EA0103024630B502
:1009D0009B0710D14FF0013400E008C208C91D1B6D
:1009E0009D4315EAC41FF8D013F0FF0102F8011B64
:1009F0000DD01B0AF8E711F8013B002B02F8013B70
:100A000005D011F8013B002B02F8013BF3D130BDBA
:100A100010B5431C02E010F8011B71B18107FAD137
:100A20004FF0013202C88C1A8C4314EAC211F9D07B
:100A3000C01A0A0603D0C01E10BDC01A10BD0A0499
:100A400001D0801E10BD0902FCD0401E10BD40EA3E
:100A5000010370B59B072ED14FF00136042A2AD32B
:100A600008C810C99D1B9D43121F15EAC61517D053
:100A7000D8B2E1B2401A50EA056110D198B2A1B2E1
:100A8000401A50EA05410AD123F07F4024F07F410B
:100A9000401A50EA052102D1180EA0EB146070BD77
:100AA000A342DBD018BA21BA884201D9012070BD17
:100AB0004FF0FF3070BD0AB9002070BD10F8013B47
:100AC00011F8014B63B1A3420AD1521E08D010F8AD
:100AD000013B11F8014B1BB1A34201D1521EEDD1D4
:100AE000181B70BD421E12F8013F002BFBD111F8FC
:100AF000013B002B02F8013BF9D17047032A40F279
:100B0000308010F0030C00F0158011F8013BBCF1AF
:100B1000020F624498BF11F801CB00F8013B38BFC7
:100B200011F8013BA2F1040298BF00F801CB38BFD5
:100B300000F8013B11F0030300F02580083AC0F0F3
:100B4000088051F8043B083A51F804CBA0E808109B
:100B5000F5E7121D5CBF51F8043B40F8043BAFF3CE
:100B60000080D20724BF11F8013B11F801CB48BF28
:100B700011F8012B24BF00F8013B00F801CB48BF5E
:100B800000F8012B704710B5203AC0F00B80B1E897
:100B90001850203AA0E81850B1E81850A0E81850B2
:100BA000BFF4F5AF5FEA027C24BFB1E81850A0E8BB
:100BB000185044BF18C918C0BDE810405FEA827CD5
:100BC00024BF51F8043B40F8043B08BF7047D207EC
:100BD00028BF31F8023B48BF11F8012B28BF20F88D
:100BE000023B48BF00F8012B704702F0FF0343EAC5
:100BF000032242EA024200F002B84FF00002042948
:100C0000C0F0128010F0030C00F01B80CCF1040C3B
:100C1000BCF1020F18BF00F8012BA8BF20F8022B6F
:100C2000A1EB0C0100F00DB85FEAC17C24BF00F815
:100C3000012B00F8012B48BF00F8012B70474FF043
:100C4000000200B5134694469646203922BFA0E81C
:100C50000C50A0E80C50B1F12001BFF4F7AF090728
:100C600028BFA0E80C5048BF0CC05DF804EB890019
:100C700028BF40F8042B08BF704748BF20F8022B5C
:100C800011F0804F18BF00F8012B70474FF0013C66
:100C900050F8042B51F8043B9A4221D1A2EB0C03EB
:100CA000934313EACC1317D150F8042B51F8043BAB
:100CB0009A4215D1A2EB0C03934313EACC130BD148
:100CC00050F8042B51F8043B9A4209D1A2EB0C03D3
:100CD000934313EACC13DBD04FF00000704700BF02
:100CE000D01A01BAB1FA81F101F0180122FA01F02B
:100CF000CB40C1F12001DBB2C0B2C01A2CFA01F323
:100D0000D11A914311EAC311E6D170477047704779
:100D10007047704710B500F0D1FD001D10BD00BF39
:100D2000A57F02000048704704FF0320704770470A
:100D30007047704738B504460A4600206946AFF34D
:100D40000080002808BF38BD02460099204600F008
:100D5000BDFD012038BD012000F0D7BEF8B5AFF3CE
:100D60000080054600200C46102000BF0646A8194A
:100D7000A0420DD9324669460020AFF3008007003B
:100D800008BF00F0C2FE0098A04218BF0546C41973
:100D9000FFF7C8FF05600746F01D20F00700461961
:100DA000284600F00AF8B44208BFF8BDA21B31463D
:100DB0003868BDE8F84000F089BD00210160C0E955
:100DC00001107047102070472DE9F0470D469946F5
:100DD0009246044600F124080168880604D5E069BB
:100DE00021F01001216000E00120A84201DD471B35
:100DF00000E00027A1697A1902EB0900081AA06136
:100E00002078C00602D42046AFF30080002608E018
:100E1000D4E901211AF806009047206A401C761C8C
:100E200020624E45F4DB2078C0060AD52046AFF399
:100E3000008006E0D4E9012130209047206A401C60
:100E40002062381EA7F10107F4DC07E0D4E9012194
:100E500018F805009047206A401C2062281EA5F162
:100E60000105F3DC2046AFF300802078000602D5B0
:100E70000220BDE8F0870120FBE770472DE9FF4F16
:100E80000C461E464FF0FF378BB0D2E90001DDF86B
:100E900060800A908A46C1F30A5505B93D46002193
:100EA00008464FF00000BAF1000F00F4400005DAE8
:100EB00000EB80004FF4400101EA50004FEA9059E6
:100EC000B9F1010F00DDB9460A9850EA4A000ED088
:100ED00044F61050A5F2FF3545432F14B8F1000F2A
:100EE0001ED07542291E1EDDC9F100021CE0B8F1BA
:100EF000010F4FF0000001D0302103E0F24305E084
:100F00002154401CB042FBDB30460022002121541A
:100F10000B99C1F80880C1E900200FB0BDE8F08F3F
:100F2000BD1B6D1CDEE74A4600DA694206A800F0E8
:100F300075FD06AB93E8070003AB83E80700504656
:100F40000A9901F0A8F88DE80700A0F500501F38B5
:100F500000900398002D09DD42F21F014A46084423
:100F600003A90390684601F032FB08E0A0F50050A9
:100F70004A461F3803A90390684601F050FB8DE8EC
:100F800007000004000C03D04FF0FF30410800E0E0
:100F90001046B8F1000F03D00022009215461EE063
:100FA000751E05D400F0ACFC303262556D1EF9D5CB
:100FB000B3460122084302D000227F1C04E02078BF
:100FC000302801D100227F1E002A099786D01DE01B
:100FD000112D07DA00F094FC303262556D1C50EA96
:100FE0000102F5D1084302D00098C8B10EE00021FB
:100FF000681E05E0235C625C63542254401E491C59
:101000008142F7DBAB46A81B401E0990002004F884
:101010000B000B98099AC0F80880C0E9002B7CE708
:1010200011264FF0000859E72DE9F04F8846044695
:10103000D21D22F0070191B0D1E90001CDE90A01EA
:1010400002F008FA02460B98C00F01D02D2007E0ED
:101050002068810701D52B2002E0202101EAC00091
:10106000032A099001D0072A05DB034641462046A2
:1010700000F094FC0BE12078800601D5E06900E0E7
:101080000620B8F1650F814606D0B8F1660F18D07A
:10109000B8F1670F70D131E00020B9F1110F009065
:1010A00001DB112301E009F101030AAA01A90CA83F
:1010B000FFF7E4FEDDE90C70002609F10105834627
:1010C00047E001204B4600904FF000470AAA01A9D3
:1010D0000CA8FFF7D3FEDDE90DB00C995D460026A4
:1010E00010B909F101000D18B9EB050003D4C0F1E6
:1010F000FF3609F10105A5EB09002BE0B9F1010F5D
:1011000001DA4FF001090020B9F1110F00904846B3
:1011100001DD112300E003460AAA01A90CA8FFF78C
:10112000ADFEDDE90C704D460026834620780007B1
:101130000AD4AB4500DA5D4601A8012D04DD411952
:1011400011F8011C302907D04F4502DA17F1040FBE
:1011500004DA012082460FE06D1EEEE7002F02DC6C
:10116000ED1B3E4403E0781CA84200DD7D1CB81B4B
:1011700000F1010A4FF000472078000703D4AA4588
:1011800001DB4FF0FF3A0021B7F1004F0DF14308AA
:101190008DF8431024D002202B23002F01DA7F4248
:1011A0002D230A21021EA0F1010000DC5FB197FB94
:1011B000F1FC97FBF1F201FB1C7C17460CF1300CA3
:1011C00008F801CDEEE7A8F10100037021880905B8
:1011D00001D5452100E06521A0F1010800F8011CBE
:1011E00009980FA9A1EB0807FF1D00B101204119C3
:1011F00001EBEA70A1693844081A401EA06120780A
:10120000C00602D42046AFF30080099828B1D4E983
:1012100001219047206A401C20622078C00622D518
:101220002046AFF300801EE0002E04DBB34502DD54
:1012300001A8805D00E03020D4E901219047206AB8
:10124000401C2062761CAAF101005FEA000A0AD164
:1012500000F034FBC0680168405CD4E9012190478C
:10126000206A401C2062281EA5F10105DCDC07E095
:10127000D4E9012118F8010B9047206A401C206234
:10128000381EA7F10107F3DC2046AFF300800320EE
:1012900011B043E601694A1C02610878704700B545
:1012A0008FB0CDE901310021059105497944CDE99F
:1012B000031011466846FFF79BFA0FB000BD00000F
:1012C000E5FFFFFF0A6802F8010B0A607047D1E9E9
:1012D00000239A4202D2531C0B601070704710B565
:1012E000436913B1AFF3008001E0FFF71BFA01205F
:1012F00010BD127800F124010A7000224A70012208
:10130000EDE711684FF0FF32E9E70000074B70B5D9
:101310000D467B44FFF7C3FF0446284600F0ECFB74
:1013200010B14FF0FF3070BD204670BD53CD0000AE
:101330002DE9FF4F064689B00878FF2806D0491CE2
:101340002D2805D000244FF0000908E000200CE013
:101350000124F8E709EB8903491C00EB43090878ED
:10136000FF28F7D114B1C9F100008146107800259B
:101370002C46AA4629462D2801D02B2804D1521CE0
:101380002D2813D0002082468B461078FF280FD0DE
:101390004FF0000C0A21521CA5FB017804FB0181CF
:1013A00005FB0C11C5194BEB0104EEE70120EAE740
:1013B000002108464FF00000BAF1000F02D000EB08
:1013C00080004008C0F38158B8F1010F01DD4FF0F3
:1013D000FF380C9809EB000755EA040009D04FF0DC
:1013E000020917F5FA7F0BDA4FEACA70C6E900B0B6
:1013F00012E04FEACA70C6E900B00DB0BDE8F08F48
:10140000B7F5FA7F0DDDF0487844D0E90010C6E961
:10141000001040EACA70706000F054FAC0F8009002
:10142000EBE7391E02DAC8F1000200E0424600DABA
:10143000794206A800F0F2FA06AB93E8070003AB86
:1014400083E8070044F23E005BEA0401009058463E
:1014500004D144F21E012C465D460091210C090482
:10146000014306D10099240444EA15442D0410399F
:10147000009104F07F41014306D10099240244EA1F
:1014800015642D020839009104F07041014306D122
:101490000099240144EA15742D01091F009104F0FC
:1014A0004041014306D10099A40044EA9574AD007F
:1014B000891E009104F00041084304D100986D1981
:1014C0006441401E009042466846002FCDE9014528
:1014D00003A902DD01F0B7F801E001F08CF8BAF1E0
:1014E000000F04460D4601D084F0004440F2FF771F
:1014F00024F00040284303D0C4F30A50B84212D16C
:1015000000F0E0F9C0F80090C4F30A50B8420AD1E4
:10151000AE487844D0E90010C6E9001004F000415C
:101520000843706069E7C6E9005466E72DE9FF4F9C
:101530001F464FF0000A4FF0FF38454691B0D7E9FB
:101540000146CDF83CA000F0B9F9C0680168405CE4
:101550001090B96912986D1C8847396A814688478E
:101560000028F6D1B9F1FF3F0AD0002E24F4D06450
:1015700011DDB9F12B0F08D0B9F12D0F0BD102E01D
:10158000404615B03AE744F48064B96912986D1C7E
:101590008847761E8146600504A901D52D2000E00C
:1015A0002B20002E01F1010B0DF130088DF81000F9
:1015B0003FDDB9F1690F08D0B9F1490F05D0B9F194
:1015C0006E0F02D0B9F14E0F1CD13B4601A8009519
:1015D00080E85002DDE912126FF0020028F072F983
:1015E000C11CCED10EE0B96912986D1C88478146A6
:1015F0001398761E44F4007405600F98401C002E6A
:101600000F9016DDB9F1300FEDD0B9F1780F02D09F
:10161000B9F1580F0DD10F9801280AD13B46CDE9F9
:101620000054DDE91212001F029628F049F9C11C8E
:10163000A7D1109989453ED144F0800406E0139962
:10164000681CAAF1010A44F400740860B9696D1CB1
:101650001298761E884730288146F0D02BE01099EA
:10166000894505D1200603D4761E44F0800418E095
:10167000484602F029F808B3761E0DF123018B4588
:1016800044F4007408D2A9F130000BF8010B2006D5
:1016900007D5AAF1010003E0200602D40AF10100F7
:1016A0008246A00502D51399681C0860B969129892
:1016B0006D1C88478146002ED1DC53E0002E51DDA1
:1016C000B9F1650F02D0B9F1450F4BD1A00549D54D
:1016D000B9696D1C1298761E24F440748847002E58
:1016E00081460CDD2B2804D0B9F12D0F07D144F42D
:1016F0008074B96912986D1C8847761E8146E00592
:1017000001D52D2100E02B2108F8011BCDF8008028
:1017100021E0761E0DF13901884544F400740CD2A5
:10172000A9F1300010F0FF0088F8000002D1009904
:10173000884509D908F1010806E0E00501D52448EB
:1017400001E042F20F708246B96912986D1C884719
:10175000814613980560002E04DD484601F0B4FF71
:101760000028D6D1F96912988847FF2053468BF894
:10177000000088F8000000200A900B9004AA0CA931
:101780000AA8FFF7D5FDA00502D46FF00100F8E626
:1017900014F0240F0AD0E00714D13868DDE90A12EA
:1017A000031D3B600068C0E900120BE00AA968460F
:1017B00001F006FFE00705D13868009A011D396085
:1017C000006802602846DCE6387B0B002E7A0B00AE
:1017D000F1D8FFFF426842B1016811F8013B23B123
:1017E000521EC0E90012184670470121C160881ED0
:1017F000704742685AB1C368016843B983688B4235
:1018000005D0491E521CC0E90012002070474FF05D
:10181000FF3070470FB4002300B589B00CA90091C8
:101820000B99CB60204B7B440693204B7B44079362
:1018300004236FF00042CDE901321D4A7A446B4621
:1018400008920246002028F039F809B05DF814FB30
:1018500070B506464FF0FF3015460C46324686B04E
:101860000091CDE9010169460020049004A8FFF72A
:10187000D1FF03460498211825B108B10A4600E0BB
:1018800022462A6000280DD0002B02DD00988842F5
:1018900008D03246081B69460094CDE9010404A82B
:1018A000FFF7B8FF06B070BDABFFFFFFC3FFFFFF40
:1018B0004B01000000487047FCFE032000487047C1
:1018C0001CFF032000487047FCFE032003464068CD
:1018D0008C46002818BF88423CBF03464068F8D3B6
:1018E00018681844884207D00CF1030020F0070064
:1018F000001D411A521A0146081D0A60FEF7E2BD9A
:1019000030B5B0F10A024FEA900E71F100034EEAD1
:10191000817EB0EB0E0061EB91014FEA101E4EEAA2
:10192000017E10EB0E0041EB11114FEA102E4EEA32
:10193000016E10EB0E0041EB11214FEA104E4EEA02
:10194000014E10EB0E0041EB1141401841F1000136
:101950004FEAD00040EA41704FEAD10110EB800518
:101960004FEA810444EA907444EB01046D1944EB9E
:101970000404521BA3414FF0000348BF0A3200D5B4
:1019800030BD401C41F1000130BD10B50446FFF7E9
:10199000C1F90068005D00F0010010BD2DE9F041C3
:1019A0001F46044603260168072A01F4006004DB91
:1019B00008B116A505E016A503E008B115A500E0DD
:1019C00015A521F010002060A069C01EA0610FB114
:1019D000401EA0612046AFF300804FB1D4E9012141
:1019E00038469047206A401C2062C01C206206E0F6
:1019F000206AFAE7D4E9012115F8010B9047761E19
:101A0000F8D22046AFF30080BDE8F0814E414E0091
:101A10006E616E00494E4600696E66002DE9F04722
:101A2000814616468AB0334878440DC88DE80D00CB
:101A300030487844801C03AC0DC884E80D0041F6A2
:101A40009B300844372190FBF1F290FBF1F5A5F1B2
:101A5000800501FB12041B3C02D56442012000E01A
:101A60000020DFF890A080460027FA44AAF1BE0AC1
:101A70000DE0E00709D03246684607EB47010AEB64
:101A8000810100F0CCFD8DE8070064107F1C002C64
:101A9000EFD1184F7F44AC3F18E0E80714D007EBB4
:101AA00004100DF1180A90E80E008AE80E00C068D4
:101AB000F04201D198190890324606A903A800F017
:101AC000AEFD03AB83E807006D10641C002DE4D16C
:101AD00032466946B8F1000F03A802D000F077FD46
:101AE00001E000F09CFDC9E90001C9F808200AB036
:101AF000BDE8F08714700B00007B00F08000704799
:101B0000002801D003F07BB8704710B500F07AFAD6
:101B1000BDE81040FFF7F4BF7546FFF7CBFEAE46B9
:101B200005006946534620F00700854618B020B5E9
:101B3000FEF786FCBDE820404FF000064FF000079E
:101B40004FF000084FF0000B21F00701AC46ACE865
:101B5000C009ACE8C009ACE8C009ACE8C0098D46D2
:101B6000704710B5FFF7AEFE006810BD10B5044613
:101B7000FFF7A8FE046010BD2DE9FF4F1F464FF090
:101B80003C0987B04FF00042DDE9141001F1010873
:101B9000DDF858A002EA40500390002004908346EC
:101BA000054604460590B969461E08988847AAF17B
:101BB000010A0290BAF1000F37DD02982E2815D0E5
:101BC000102100F05AFA00282ADB4FF0010B04998B
:101BD000014316D0B9F1000F0BDB4A46C11700F0E4
:101BE00039FA05430C43A9F1040905E001200590E9
:101BF00007E008B145F0010501200490059800B9FF
:101C0000361DB969089808F101088847BBF1000F33
:101C1000AAF1010A0290CDD00999C1F80080C9E764
:101C20000298702808D0502806D0F969089888478B
:101C3000BBF1000F14D04FE0002002900120BBF157
:101C4000000F049009D0B969089808F10108884785
:101C5000AAF10109B9F1000F07DCF9690898884772
:101C60006FF001000BB0BDE8F08F2B2804D02D28B9
:101C70000CD14FF0FF300490B969089808F10108C1
:101C80008847A9F10109B9F1000FE6DD411CE4D054
:101C90000A2100F0F2F90028DFDB029908F10108BF
:101CA00001EB810100EB41000290B9690898884777
:101CB0000A2100F0E2F9099AA9F10109B9F1000F2E
:101CC000C2F8008001DD0028E7DAF9690898884742
:101CD0000499029800FB016655EA040004D004F060
:101CE0004041090002D006E0039898E0A40044EACD
:101CF0009574AD00B61E04F00041080002D16D19C4
:101D00006441761E159810F0240F03D04FF00B0994
:101D10005C4803E04FF028096FF07D00824656458D
:101D200007DAAAEB06018944B9F1410F01DD4FF052
:101D3000410901200021A9F1010200F08BF90246BE
:101D400028400B462140084301D0012100E000213A
:101D5000501E029143F1FF3128402140084301D039
:101D6000012000E000200299834651EA0B014FD088
:101D7000002108464FF00000039900F4400039B1FB
:101D800000EB80004FF4400100EBD07001EA6000EE
:101D90008015012802DD4FF0FF3000E013D0401C19
:101DA00036D0029860B3BBF1000F0CD14A46012037
:101DB000002100F04FF928402140084301D00120C4
:101DC00000E00020E0B101204A46002100F042F985
:101DD000034640190A4661412D1A8C4111D3B9F1CD
:101DE000400F09DD159810F0240F02D0AAF1340637
:101DF00003E0AAF1170600E0761C00254FF000442E
:101E000006E05B1E42F1FF3220EA030521EA0204EC
:101E1000CAF10100B04206DA1B4903980843019059
:101E2000002000900EE0039AC4F3D321E80A0A438D
:101E3000164940EA44500A433146CDE9000268465B
:101E400001F01AFC159810F0240F0BD01598C0075C
:101E500015D13868DDE90012031D3B600068C0E958
:101E600000120CE002A8694601F0AAFB1598C00711
:101E700005D13868029A011D396000680260404649
:101E8000F0E6000002FCFFFF0000F07F0000F03FE2
:101E90002DE9FF4F92461D4685B04FF00041DDE928
:101EA000124BDDE914727F1E01EA4B50414940F0AC
:101EB000FF4940EA0108002122F02000492804914E
:101EC00002D04E2828D04CE03BA0012607C88DE860
:101ED0000700A9690698641C88477F1E014606D43E
:101EE0001DF8060018B121F0200181420BD0E969EC
:101EF00006988847032E34D0082E32D06FF00100A8
:101F000009B0BDE8F08F761C032E01D0082EE0D179
:101F1000601CCAF80000DCE7A9690698641C8847C1
:101F20007F1E2AD420F02000412826D1A9690698D6
:101F3000641C88477F1E20D420F020004E281CD12E
:101F4000A9690698641C88477F1E48F4002849F454
:101F50008009CAF8004001D4282806D0E96906980B
:101F600088475FEACB7012D022E0A9690698641C0A
:101F700088477F1E01D4002803DAE969069888475C
:101F8000BCE72928F1D1641CCAF80040E9E71BF03E
:101F9000240F07D028680499031D2B600068C0E94E
:101FA000001805E02868021D2A600068C0F800904B
:101FB0002046A5E70000F07F494E46494E49545956
:101FC000000000000446AFF300802046FEF7A9F9A8
:101FD00070B505460C460A2000E06D1C02F010FEAC
:101FE00035B128780028F8D102E0641C02F008FE20
:101FF00014B120780028F8D1BDE870400A2002F022
:10200000FFBD000010B5012805D0002103A0FFF797
:10201000DFFF012010BD09A1F8E700005349475236
:10202000544D454D3A204F7574206F6620686561A8
:1020300070206D656D6F7279000000003A20486570
:102040006170206D656D6F727920636F727275704B
:1020500074656400B2F120030AD5C2F1200301FACD
:1020600002F120FA03F300FA02F041EA030170479B
:1020700000FA03F14FF0000070473A2800D23038E0
:1020800020F02002412A01D3A2F13700884201D377
:102090004FF0FF3070475FEA400C08BF91F0000F2F
:1020A0004FEA8C234FEAC12243EA51514FEA1C50B8
:1020B00018BF00F5F0404FEA300018BF41F0004172
:1020C0005FEA6C5C00F02980BCF1FF3F08BF40F084
:1020D00080407047130C06BF12044FF0100C4FF0F5
:1020E000000C130E04BF12020CF1080C130F04BFF6
:1020F00012010CF1040C930F04BF92000CF1020CBE
:10210000D30F04BF52000CF1010C11464FF0000236
:10211000A0F11F00A0EB0C00704711F0004F08BFAA
:10212000704731F000413FF4D5AF0B0C06BF0904F6
:102130004FF0100C4FF0000C0B0E04BF09020CF115
:10214000080C0B0F04BF09010CF1040C8B0F04BF2A
:1021500089000CF1020CCB0F04BF49000CF1010CFB
:10216000CCF12003A0EB0C0022FA03F302FA0CF2EC
:1021700041EA030100F10100704720F07F4C80EA42
:10218000030023F07F47ACEB070303F57C5300F01B
:10219000004003F1FF032DE980494FEA154B09B4D4
:1021A0004FEA144325EA0B4E24EA03480FF20426B3
:1021B00006EB132749083E785FEA320203FB066705
:1021C000C7F5000707FB06F64FEA54374FEAD64635
:1021D00006F1020607FB066CCCF1005C4FEA1C47D7
:1021E0002CEA074C07FB06F40CFB06F504EB15463E
:1021F0004FEA961634BF00204FF000404FEAD13727
:1022000006FB07FC4FEA1C4C0CFB0BF7D21B03FB35
:102210000CF761EB07010CFB0EF7B0EB074072EB1C
:1022200017420CFB08F734BFA2EB0742B2EB0742A0
:1022300061EB17414FEA0C444FEA910706FB07FC9C
:102240004FEA1C4C0CFB0BF7B0EBC74072EB57325C
:1022500003FB0CF734BFA2EBC742B2EBC74261EB02
:1022600057310CFB0EF7B0EBC70072EB57720CFB4B
:1022700008F734BFA2EBC702B2EBC70261EB57719C
:10228000039F4FEA816141EA921104EBCC044FEACB
:10229000D1374FEA826206FB07FC42EA90124FEA0E
:1022A00080604FEA1C4C0CFB0BF7D21B03FB0CF7B6
:1022B00061EB07010CFB0EF7B0EB074072EB174226
:1022C0000CFB08F734BFA2EB0742B2EB074261EB0D
:1022D00017414FEA8C554FEA910704EB9C2406FB0B
:1022E00007FC4FEA1C4C0CFB0BF7B0EBC74072EB42
:1022F000573203FB0CF734BFA2EBC742B2EBC74225
:1023000061EB57310CFB0EF7B0EBC70072EB577265
:102310000CFB08F734BFA2EBC702B2EBC70261EBBC
:10232000577115EB4C254FEA816141EA92114FEA52
:1023300082624FEAD13742EA901206FB07FC44F171
:1023400000044FEA80604FEA1C4C0CFB0BF7D21BD9
:1023500003FB0CF761EB07010CFB0EF7B0EB07403A
:1023600072EB17420CFB08F734BFA2EB0742B2EB4B
:10237000074261EB174115EB1C154FEA813141EA29
:1023800092414FEA823242EA90424FEA80304FEA6D
:102390000C7644F1000448EA03434EEA0B484FF040
:1023A000000EB2EB080C71EB030724BF62463946FE
:1023B0004EEB0E0E4FF0000B0018524149414BEB13
:1023C0000B0BB2EB080C71EB03077BF1000B24BF86
:1023D000624639464EEB0E0E4FF0000B001852418C
:1023E00049414BEB0B0BB2EB080C71EB03077BF194
:1023F000000B24BF624639464EEB0E0E51EA02072F
:1024000018BF46F0010616EB0E7655F1000254F1A6
:10241000000103D5BDE88901BDE80088BDE8890158
:10242000BDE80048B619524141EB0101A3F1010397
:10243000704780807F7E7D7C7B7A79787776767531
:102440007473727171706F6E6E6D6C6C6B6A6A69A9
:102450006868676666656464636362616160605F43
:102460005F5E5E5D5D5C5C5B5B5A5A5959585857BC
:102470005756565555555454535352525251515024
:1024800050504F4F4F4E4E4D4D4D4C4C4C4B4B4B77
:102490004A4A4A49494948484847474747464646BD
:1024A00045454544444444434343434242424241F8
:1024B0004141000046EA0646A3F570534FEA16462E
:1024C00046EA42564FEAD22242EA415210B54FEA5A
:1024D000D121A3F1010300F017F820F0004000F132
:1024E000010C00F0004701EB00501146BCF5006FF5
:1024F00040EA070000D210BD02484FF0000140EA58
:10250000070010BD0000F07F002B26D4770021D0FB
:102510001CB54FEA370703B44FF010004FF010011D
:102520004FF000000FBCBDE810400BF1010BBBF1F8
:10253000010F08BF5FEA170722BF12F1010211F174
:1025400001014FF0004143F1000300F0004043EA75
:1025500000007047F9D35708DAE746EA064613F158
:10256000400F4FEA16461FDD13F1200FDFBF164361
:102570000A46002120335B42C8D0C3F1200746EA57
:10258000064602FA07F74FEA164646EA0706C3F17F
:10259000200722FA03F201FA07F721FA03F14FF0BC
:1025A000000342EA0702B1E746EA020646EA0646A7
:1025B0004FEA164646EA0106BCBF46EA0646360C16
:1025C0004FF000034FF000024FF000019EE72DE9AD
:1025D000C048934630B491E8380007C831EA400C4F
:1025E00048BF34EA430C03D5FFF7C7FDFFF78CFF64
:1025F000F0BCBDE800882DE9C048934630B491E8AE
:10260000380007C831EA400C48BF34EA430C03D510
:10261000FFF7B3FDFFF74EFFF0BCBDE800882DE9E2
:10262000C048934630B491E8380007C810F0804F96
:1026300008BF13F0804F03D100F019F8FFF764FFD3
:10264000F0BCBDE800882DE9C048934630B491E85D
:10265000380007C810F0804F08BF13F0804F03D137
:1026600000F005F8FFF726FFF0BCBDE8008820F079
:102670007F4780EA030023F07F4C07EB0C03A3F5B0
:102680007C5300F00040A3F1FE0392F0000F00F035
:10269000B38095F0000F00F077802DE901494FEAF3
:1026A00011404FEA144621EA004800FB06FC24EAE8
:1026B000064708FB06F607FB08F800FB07F718EBD0
:1026C00006484CEB164C4FEA124B18EB07484FEA02
:1026D00015464CEB174022EA0B4E0BFB06FC25EA95
:1026E00006470EFB06F607FB0EFE0BFB07F71EEB7D
:1026F000064E4CEB164C4FF000061EEB074E4CEB13
:10270000174B18EB0B0840F1000018EB0E0B58EBC1
:10271000000840F100008F1A4FF000013CBFC94390
:10272000661B14BFB5EB040C00213CBFC943F61B6C
:102730004FEA17444EEA8E0E27EA04454FEA1C473B
:1027400004FB07622CEA074C05FB07F70CFB05F6B8
:1027500004FB0CFC16EB074642EB174216EB0C464B
:1027600042EB1C421BEB060658EB0202414146EAD3
:102770009E0601D5BDE80189B619524141EB010120
:10278000A3F10103BDE801894FEA14454FEA11475F
:1027900024EA054621EA074C05FB07F406FB07F788
:1027A0000CFB06F105FB0CFC11EB074144EB174455
:1027B0004FEA124711EB0C4144EB1C4422EA074C50
:1027C00005FB07F206FB07F70CFB06F605FB0CFC06
:1027D00016EB074642EB174216EB0C4642EB1C4544
:1027E0006A1854F1000148BF7047B619524141EBD5
:1027F0000101A3F10103704795F0000F37D04FEAB4
:1028000011424FEA144721EA024624EA074C02FB30
:1028100007F106FB07F70CFB06F402FB0CFC14EBBC
:10282000074441EB17414FEA154714EB0C4441EBC9
:102830001C4125EA074C02FB07F506FB07F70CFBDA
:1028400006F602FB0CFC16EB074645EB174516EBAC
:102850000C4645EB1C42121951F1000148BF70476C
:10286000B619524141EB0101A3F1010370474FEA50
:1028700014454FEA114724EA054621EA074C05FBB7
:1028800007F106FB07F70CFB06F24FF0000605FB0D
:102890000CFC12EB074241EB174112EB0C4251EBDF
:1028A0001C4148BF7047921841EB0101A3F101039D
:1028B000704700007FB5324800240121047331487D
:1028C00005F0F0F90121304805F0ECF968460CF00C
:1028D000C4FA8DF804408DF8054002208DF80600FA
:1028E0008DF80700C002294D0090694628460CF07B
:1028F000BEFA02220C2128460CF0F2FA244805F018
:102900005BF923482349254DC0684000B0FBF1F036
:10291000401E82B2204840F2E7310280284623F070
:1029200051FE0021284623F06BFE0021284623F0AB
:1029300062FE02A823F00FFF06208DF80800012098
:102940008DF809408DF80D008DF80B4002AA00218A
:10295000284623F095FE4FF4FA720021284623F012
:1029600038FE01220021284623F06BFE0121284673
:1029700023F0FAFE0021284623F047FE7FBD000029
:10298000A4180020030040000100300000040240B1
:102990006810002040420F00BC030020000C0040E3
:1029A00070B51A4C207800281CD0A288002A19D0B3
:1029B000207B012816D02146637809891448491CD8
:1029C00089B200257BB1012B0CD12181914209D321
:1029D000E18899B16289521C92B262818A420DD318
:1029E0002570A58070BD218162889142FAD30021B3
:1029F00023F00BFE25810120607070BD258165707C
:102A0000BDE87040012123F000BE0000A4180020A2
:102A1000000C00400721A1EBD002054900F007009F
:102A2000C0F107000A700122487082408A70704726
:102A30003C000020FEE7000086B002200EF0AAFA5B
:102A400000200EF0B3F90DF0CDFB002023F094FE32
:102A5000DFF8F8B1DFF8F8917E4EDFF8FC817F4CAB
:102A60007F4D04A80BF0C2FB9DF910109DF91230A8
:102A70000BEB01109DF91120D0E9017C99F90000C0
:102A8000009047F3072178B2E047C8B19DF91220C2
:102A90009DF911109DF9100002AB04F04FF947F3B6
:102AA000074028B1002005A904F076F928B901E013
:102AB0000120F8E70BF05EFB58B302A803F05CF8C6
:102AC0009DF8100005F0C8F966A0FDF703FE317807
:102AD000D8F80000CDE9000140F2CF1A474653462E
:102AE00049F2A0722188288824F0E0FF3078396804
:102AF000CDE9001029885346084480B249F2885233
:102B0000218824F0D3FF4FF0010A142024F0D6FCD2
:102B1000A7E79DF90B109DF90A0004F047FD9DF908
:102B200010001DF031FA514802990160BDF80C10F7
:102B300081804F490120087047F3074005A904F040
:102B40002BF9002865D09DF914000DF027FFB8B3CC
:102B500099F8000031780028D8F8000003D000234D
:102B60004BF6913203E04FF478434BF6A222CDE9C5
:102B700000012188288824F099FF3078D8F80010C7
:102B8000CDE9001029884746084447F6FF7880B20F
:102B9000434649F2B962218824F088FF30783968C9
:102BA000CDE900102988434601EB400080B248F28D
:102BB0009C32218824F07AFF2C48FE210170FEE728
:102BC000FFE73178D8F80000CDE9000199F800005E
:102BD000474608B1002301E04FF478434BF28602E8
:102BE0002188288824F062FF30783968CDE9001008
:102BF00099F8001009B1002301E04FF478432988C7
:102C000048F29B62084480B2218824F04FFF0120E3
:102C100010E0BAF1000F0ED04BF640400090218832
:102C20003278881883B2288800EB420292B20EF004
:102C30005FF90020824699F8001021B15FF0000191
:102C400089F8001061E70121FAE700000C0100207B
:102C50000101002078030020800300207C03002075
:102C60007A030020E697A0E6958800000301002083
:102C70000201002010B5002813D0012810D002282E
:102C800010D003280CD004280AD0052808D0062824
:102C900006D0072804D040F22D2103A000F088F8C8
:102CA000002010BD0A4810BD2E2E5C2E2E5C2E2E4C
:102CB0005C6C69627261726965735C617433325F06
:102CC0006273705C6273705F756172742E63000072
:102CD000781000200721A1EBD002054900F0070081
:102CE000C0F107000A700122487082408A70704764
:102CF0003F00002010B54FF4007005F021FA0021CC
:102D0000054805F017FA05480068002803D0BDE81B
:102D1000104010F053BC10BD30640240000400208D
:102D200070470146002004F01BBE000010B50446A9
:102D3000FDF76EFE82B22146022004F0FFFD022262
:102D4000BDE8104001A1104604F0F8BD0D0A0000D6
:102D5000F8B50E4607460024FDF75AFE0546FF2843
:102D60000BD866B13146032003F0D8F903F000F91F
:102D70003EB1032003F082F818B10020F8BD03F043
:102D8000F7F86946022004F0B2FD0028EED09DF865
:102D90000000FFF7C6FF385D9DF80010884205D19E
:102DA000641CA4B2AC42E1D10120F8BD0024DDE7EF
:102DB000002900D0FEE77047FEE70000F0B50828C4
:102DC0001DD200220F4BFF24114600BF53F8315093
:102DD0002D6903EBC106B7883D4000D00125B679C7
:102DE000AE4202D1521CD2B20C46491CC9B20829CB
:102DF000ECD3012A03D1844201D10120F0BD00208F
:102E0000F0BD000004B10208FEE770472DE9F0476D
:102E100081468A460846FFF75DFF444D4FF0FF08A4
:102E2000EC1C2F782078391A4EB2002E20DD49464E
:102E3000384600F00BF9A8780121401EC0B21DF001
:102E4000C5FD7F1EFDB20027761E09E000F0FEF8EA
:102E50000121FF201DF0BAFD6D1E7F1CEDB2FFB2F7
:102E6000B74249462846F1DB00F0F0F8617859E0B6
:102E700034D161786A78914204D1494600F0E6F88D
:102E8000A0780FE0494607D900F0E0F8A078A978CB
:102E9000411A0143C8B205E000F0D8F8A878A1783B
:102EA000401AC0B201211DF091FD5046FFF7B2FD5E
:102EB000002409F10106F1B2204600F0C7F8002510
:102EC000012100201DF082FD6D1C15F0FF05F7D0DB
:102ED000641CE4B2082CEED3BDE8F08707464946EF
:102EE00000F0B4F8A078FF2101EB4000C0B201214E
:102EF0001DF06CFD7F1E0024FFB2F6430AE000BF08
:102F000000F0A4F80121FF201DF060FD7F1E641C6D
:102F1000FFB2E4B2B44249463846F1DB00F096F81D
:102F20006978491C08FA01F0BBE700003C0000206A
:102F300010B500F09FF8444C0122402120460BF0D0
:102F400087FF0A2005F0BEF80022402120460BF042
:102F50007FFF0A2005F0B6F80122402120460BF041
:102F600077FF0021AE201DF031FD002120201DF053
:102F70002DFD002110201DF029FD0021B0201DF0A5
:102F800025FD0021C8201DF021FD002108461DF06F
:102F90001DFD002110201DF019FD002140201DF015
:102FA00015FD002181201DF011FD0021FF201DF0E5
:102FB0000DFD0021A1201DF009FD0021A6201DF01E
:102FC00005FD0021A8201DF001FD00213F201DF07E
:102FD000FDFC0021A4201DF0F9FC0021D3201DF0F0
:102FE000F5FC002108461DF0F1FC0021D5201DF064
:102FF000EDFC0021F0201DF0E9FC0021D9201DF09E
:10300000E5FC002122201DF0E1FC0021DA201DF06A
:10301000DDFC002112201DF0D9FC0021DB201DF079
:10302000D5FC002120201DF0D1FC00218D201DF0B9
:10303000CDFC002114201DF0C9FC0021BDE810408A
:10304000AF201DF0C3BC00000010024010B50C46BC
:10305000B030C0B200211DF0B9FC04F00F00002117
:103060001DF0B4FC102040EA1410BDE8104000210F
:103070001DF0ACBC1CB51DF0CBFC0121204804F0B8
:1030800011FE684621F0D8FE03208DF800000121D2
:103090008DF8011004208DF8020000208DF8040046
:1030A0008DF805008DF80600164C8DF803008DF89C
:1030B00007106946204621F0D8FE0121204621F064
:1030C000C6FE0022082110480BF0C2FE0F4C012260
:1030D000402120460BF0BCFE0A2004F0F3FF002242
:1030E000402120460BF0B4FE0A2004F0EBFF02B0B2
:1030F00020460122BDE8104040210BF0A9BE00008F
:103100000F004000003C0040000C02400010024054
:1031100010B5102080F31188BFF34F8FBFF36F8F6E
:1031200025F02CF918B104494FF0805008600020B8
:1031300080F3118810BD000004ED00E0174801681D
:1031400041F4700101601648016841F0010101601D
:1031500001688907FCD5124908310A6822F0030288
:103160000A600A6812F00C0FFBD100220A600168A5
:103170000C4B194001600A490B48091D08600848BA
:10318000A030026006494FF41F000C31086003496B
:103190004FF00060803908607047000088ED00E063
:1031A00000380240FFFFF2FE0230030010B5094C68
:1031B0000221204623F033FA002809D002212046BC
:1031C00023F02AFA2046BDE81040002123F022BA5D
:1031D00010BD0000000C004070B51F4D01212846B5
:1031E00023F01DFA002836D01C4CE068401CE0603B
:1031F000A168012021B1A168491EA16000D1207001
:10320000174B002202EB420103EB81014E684EB1E5
:103210004E68761E4E6005D148700E78012E01D1A1
:103220008E684E60521CD2B2042AEBD36068401CF8
:10323000606002F068FF6078401CC0B260700A28CD
:1032400003D30020607002F057FF2846BDE87040AD
:10325000012123F0E1B970BD00100040A40300205B
:1032600038100020054910B50020086001201CF02E
:1032700031F903480168491C016010BD1014004079
:1032800028000020014800F003B80000781000205A
:103290002DE9F041044600680568C1684FF000065A
:1032A000890618D5A90616D523F028FFE28AA16859
:1032B000C0B28854E18A491C8AB2E282E1898A421A
:1032C00000D3E682628B8A4202D2618B491C618301
:1032D000616A01B188472068C168244F090616D584
:1032E000290614D5A18A61B3012184F82810628AC5
:1032F0006168895C23F005FF608A401C80B26082AF
:10330000A189884200D36682A08A401EA0826806F6
:1033100015D52068C168490611D5A18AE1B1628A34
:103320006168895C23F0EDFE608A401C80B2608297
:10333000A189884200D36682A08A401EA082BDE88F
:10334000F0810A490022491C23F02CFF0122394652
:10335000206823F027FFDAE70022394623F022FF16
:10336000206A00B1804784F82860E8E706000C0076
:1033700078B5002325E0012484F31088848AADF811
:103380000040002484F310888489BDF80050AC42CA
:103390001FD9CC5C068A4568AC55012484F310889B
:1033A000048A641CA4B204828589AC4201D300243F
:1033B0000482848A641C8482002484F310885B1C49
:1033C0009BB29342D7D30068C16841F04001C1600D
:1033D00078BDBDF80050AC42CDD10468E5682D063B
:1033E000C9D4E56845F08005E560C4E70D480C499F
:1033F000016000F12C01416000F22C4181604FF42A
:1034000080618181C181002101824182C182018369
:1034100041838182C1610162416280F82810704756
:103420000048004078100020FEE7000010B504A01E
:10343000FFF77CFCBDE8104004A0FDF74BB900008D
:103440006765745F77656174686572006F6E636548
:103450000D0A000003B401984100009850EAC12011
:1034600018BF04204A0D18BF40F0010040F2FF725F
:10347000B2EB515F08BF40F00200012808BF0520F1
:1034800002B070470000000030B540F2FF742DED2F
:10349000048BF0EE608A18EE901A85B0B0EE408A88
:1034A0009FED2B9B05468DED008B34EA115147D0E3
:1034B00053EC192B51EC180B25F076FE40D02A4620
:1034C00051EC180B26F0CCF941EC180B18EE900AD1
:1034D0008DED008B34EA10501CD053EC192B51ECBD
:1034E000180B25F061FE2BD10220FEF73FFB00F008
:1034F00057F810EE901A18EE900A8DED020B8DED34
:10350000008B61F31E0003909DED020B05B0BDEC36
:10351000048B30BD0220FEF729FB00F031F810EEDD
:10352000901A18EE900A8DED020B8DED008B61F371
:103530001E0003909DED020B05B0BDEC048B30BD69
:1035400005B0B0EE480AF0EE680ABDEC048B30BD61
:10355000000000000000000000B583B09FED060BE6
:103560000A4601468DED000B6846FEF771F99DEDA8
:10357000000B03B000BD00000000000000000000D0
:103580009FED050B10B553EC102B51EC100B25F0F3
:103590000BFF41EC100B10BD00000000000000709C
:1035A0009FED050B10B553EC102B51EC100B25F0D3
:1035B000FBFE41EC100B10BD0000000000000010ED
:1035C00030B504462DED048B81B06A4691ED008B39
:1035D00051EC180B0AF05CFD00989FED239B7E30A8
:1035E0000090002821DC53EC192B51EC180B25F02E
:1035F000DBFD1AD0002140F608004FF00000054620
:1036000051EC180B25F08AFB08EE100A40F6080072
:1036100005EA00014FF00000B5EEC08AF1EE10FAA5
:1036200004BF0220FEF7A2FA17E00098FF280EDB85
:103630000220FEF79BFA53EC192B51EC180B25F0E6
:10364000B1FF8CBF9FED0A8A9FED0A8A05E051EC1D
:10365000180B25F063FB08EE100A84ED008A01B018
:10366000BDEC048B30BD0000000000000000000035
:10367000000080FF0000807F10B5044690ED000B35
:103680000846FFF701FF84ED000B10BD70B504463E
:1036900000256FF02F0608E02068411C21600078AB
:1036A00005EB850106EB410145182068007800F024
:1036B00004F80028F0D1284670BD3038092801D818
:1036C000012070470020704730380A2801D20120BD
:1036D000704700207047000010B54421074800F0F3
:1036E00084FD00221E2106481BF0FEFE054CA06052
:1036F00001F090FF0020207010BD00004CA30120BD
:10370000C95600085406002070B5B1F90030B2F96E
:103710000040A34200DC23460380B1F90250B2F915
:103720000240A54200DD2C464480B1F90460B2F9A4
:103730000450AE4200DA35468580B1F90610B2F980
:103740000620914200DB1146C1800120AB4201DC22
:103750008C4200DD002070BDF8B50D460446B0F97E
:103760000000B1F900101646884247DBB4F9021098
:10377000B5F90220914241DBB4F90410B5F90420F7
:1037800091423BDCB4F90610B5F90620914235DCD4
:1037900096B3ADF800006088ADF802003246694685
:1037A000284600F099F8002827D0A088ADF800003E
:1037B0006088ADF8020032466946284600F08CF871
:1037C00000281AD02088ADF80000E088ADF802008B
:1037D00032466946284600F07FF800280DD0A088C0
:1037E000ADF80000E088ADF8020032466946284690
:1037F00000F072F8002800D00120F8BD0020F8BDCC
:10380000B0F90020B1F904309A4213DCB0F9042079
:10381000B1F900309A420DDBB0F90220B1F906305F
:103820009A4207DCB0F90600B1F90210884201DBC8
:103830000120704700207047F8B50D460446B0F9E6
:103840000400B1F900101646884243DBB4F90600C3
:10385000B5F9021088423DDBB4F90000B5F9041057
:10386000884237DCB4F90210B5F90620914231DC08
:1038700076B3ADF800006088ADF8020032466946C4
:10388000284600F029F818BBA088ADF80000608831
:10389000ADF8020032466946284600F01DF8B8B976
:1038A0002088ADF80000E088ADF802003246694695
:1038B000284600F011F858B9A088ADF80000E0885B
:1038C000ADF8020032466946284600F005F808B116
:1038D0000020F8BD0120F8BD2DE9FC4114460E463C
:1038E000B1F90020B0F9001005468A423ADBB5F97B
:1038F0000400824236DCB6F90270B5F90220974224
:1039000030DBB5F906309F422CDC002C75DD401A07
:103910009A1A401C521C00B212B200EBD07002EB9B
:10392000D27240105210904200DB1046844200DDFB
:103930000446ADF80010288800222044ADF80400A9
:103940006888ADF80200688831462044ADF806006A
:103950006846FFF7C1FF40B1BDF804002044ADF850
:1039600004003FE00020BDE8FC81E8880022001B45
:10397000ADF80200E888ADF8060031466846FFF76A
:10398000ABFF28B1BDF804002044ADF8040011E0FD
:10399000A8880022001BADF80000A888ADF804003C
:1039A00031466846FFF798FF50B1BDF80000001B94
:1039B000ADF80000BDF80200001BADF8020016E0F3
:1039C0006888ADF80200688800222044ADF806003F
:1039D00031466846FFF780FF70B1BDF80000001B5C
:1039E000ADF80000BDF806002044ADF806003146F1
:1039F000684619F019FFB6E7FFE70120B3E710B5F5
:103A0000B1F90040B2F900309C4200DA234603804D
:103A1000B1F90240B2F902309C4200DA23464380F9
:103A2000B1F90440B2F904309C4200DD23468380A2
:103A3000B1F90610B2F90620914200DC1146C180AE
:103A400010BD0000F8B507461BF03AFD0025264CD6
:103A50000646009537B1F868606038461BF012FEE4
:103A6000606802E00FF0B0FD6060006919F0D8FDF9
:103A70006068406908B119F0D3FD6068C06919F049
:103A8000CFFD6068006A19F0CBFD6068016941B341
:103A900019F098FF1EF010FC6068B0F85011C1B129
:103AA0004FF48071303015F075FE6068202100F50C
:103AB000987015F06FFE6068A0F8505130461BF00A
:103AC000F9FC009060680068436A13B122680099AD
:103AD000984715F0DDFC00F035F8BDE8F84000F03F
:103AE00005B8A0F85051F8BD4C05002070B50A4D3E
:103AF000002400BFC4EBC40655F8260008B115F039
:103B00003BFD05EB86001C2115F044FE641CE4B26D
:103B1000042CEFD370BD000028A401200849496897
:103B20000AE04A68824202D00A68824203D10A7ED1
:103B300042F001020A7649690029F2D1704700007B
:103B400020050020704700000421014800F04DBB13
:103B500040A301202021014800F047BB58A30120C9
:103B60002DE9FF410446DDE90A671D004FF0000022
:103B700002D1B6F5807F2BD0039001900290ADF872
:103B80000C100090ADF80410ADF80A20ADF80E202E
:103B90003B4632462946684619F0A6FD3B4632466A
:103BA000294601A819F0A0FD3B463246294602A845
:103BB00019F09AFD3B463246294603A819F094FDB8
:103BC000BDF90000BDF90430984209DA054608E065
:103BD0002080491E6080A180521EE280BDE8FF81E6
:103BE0001D46BDF90820BDF90C108A4201DA1646BF
:103BF00000E00E46B54203DA984206DB184604E0C0
:103C00008A4201DA104600E00846801E2080BDF995
:103C10000030BDF90420934201DD1D4600E0154649
:103C2000BDF90800BDF90C10884201DD064600E030
:103C30000E46B54205DD934201DD194604E011460A
:103C400002E0884200DD0146891CA180BDF90230F6
:103C5000BDF90620934201DA1D4600E01546BDF984
:103C60000A00BDF90E10884201DA064600E00E4651
:103C7000B54205DA934201DA194604E0114602E042
:103C8000884200DA0146891E6180BDF90230BDF923
:103C90000620934201DD1D4600E01546BDF90A00ED
:103CA000BDF90E10884201DD064600E00E46B54221
:103CB00005DD934201DD194604E0114602E0884229
:103CC00000DD0146891CE18088E700002DE9F04114
:103CD00015460E460746114C1BF0F2FB80462B465C
:103CE00032463946204613F0F7FD20B10020A0628D
:103CF000E06950B110E02C21204615F04BFD4FF04B
:103D00000040A0620020BDE8F08140461BF0D2FBDD
:103D1000E06108B90120E0612046F4E77CA30120BE
:103D200010B51421074800F060FA13F09BFD40B174
:103D30000549016005494160054981600549C16047
:103D400010BDFEE764A301208D7201080976010809
:103D5000857701085972010870B50D460446102197
:103D6000284615F017FD20680078012804D00228A5
:103D700007D0042807D008E0208A2880608A68805D
:103D800003E0E06800E00A20686020684268002ADA
:103D900003D02946BDE87040104770BDFEB5866A65
:103DA0000446BEB9A08A218A0844A082E08A618ABA
:103DB0000844E082204609F06AFC06007BD02046D9
:103DC0000CF09AFA00220921304612F0B1FC60781A
:103DD000800770D4208A10B9608A00286BD0002533
:103DE000ADF80450ADF8085094F83C0000F00F0016
:103DF0000328304616D016F0BDFF0746304616F0B1
:103E000093FE03460C200090B4F912103A46304657
:103E100008F0C7FCADF80800304616F0D7FEC10721
:103E200012D017E016F03AFF0746304616F0D6FEDD
:103E3000024603200090B4F910103B46304608F0CB
:103E4000B0FCADF80400E7E7BDF90410002901DD7E
:103E5000ADF80450810705D4BDF90410002901DA3A
:103E6000ADF80450410705D4BDF90810002901DD63
:103E7000ADF80850000705D4BDF90800002801DAA4
:103E8000ADF8085002AA01A920461FF05FF9BDF95C
:103E90000820BDF90410304600F042FA607880072F
:103EA00009D4A08ABDF804100844A082E08ABDF8B5
:103EB00008100844E082FEBD2DE9FC5F0446806ADC
:103EC0005FEA000B71D094F83C0000076DD014F04D
:103ED00085F8019000684021457E584617F017FE8E
:103EE0004FF0000818B9A4F81A80A4F818805846B2
:103EF00016F032FF8246584616F035FF064694F813
:103F00003C004FF0640900F00F000C2802D0032899
:103F10004CD09AE0A4F8188056B1B4F91A50002792
:103F200014F05CF800684946407EC0F1640022E06D
:103F3000608BC5F1640110FB01F191FBF9F0608326
:103F4000584616F0F1FD0546584616F013FF024696
:103F50000C200090B4F91A102B46584608F021FCAA
:103F60006083024600231EE07A1917B210FB05F2A7
:103F700092FBF1F215B2002DF6D1ADF80070A4F865
:103F80001A806A46002120461FF0E0F841F6FF72D1
:103F9000BDF900305142584609F0DEFCBDF8001072
:103FA0000123084402B200214CE09AE0A4F81A80F0
:103FB000BAF1000F0AD0B4F91850002714F00EF827
:103FC00000684946407EC0F1640022E0208BC5F1C4
:103FD000640110FB01F191FBF9F02083584616F0C3
:103FE000FDFD0546584616F059FE03460320009095
:103FF000B4F918102A46584608F0D3FB208301462E
:1040000000231EE07A1917B210FB05F292FBF1F2C1
:1040100015B2002DF6D1ADF80070A4F8188000227A
:10402000694620461FF092F841F6FF72BDF9003054
:104030005142584609F008FCBDF80010012308441D
:1040400001B20022584618F025FE208B002848D1E6
:10405000608B002845D1C6B9584616F08BFE054640
:10406000584616F061FD002D06DC00280DDD002D00
:1040700002DA01232A4604E0002806DA012340423E
:1040800002B20021584618F005FEBAF1000F19D10E
:10409000584616F0A3FD0546584616F0FFFD002DC4
:1040A00007DC00280EDD002D03DA0123002229465B
:1040B00005E0002806DA01230022404201B25846FA
:1040C00018F0E8FD0A215846019A12F031FB607899
:1040D000800706D414F83C0F20F00F00207044F83D
:1040E000148CBDE8FC9F7FB50E46040003D10FF091
:1040F0006BFA04002CD00FF0DBFA002828D094F8DB
:104100002800400724D4002506B3ADF80050ADF8D0
:10411000025020460FF070FA401EADF80400204611
:104120000FF0B0FA401EADF806006A46314602A80C
:10413000FFF7EAFA00280BD02068017C890708D530
:10414000DDE90001C4E90C01012029E0A4F8505187
:104150007FBD82690AB102A9904700260AE004EBFC
:10416000C601002202A83031FFF7F6FA0028EFD18D
:10417000761CB6B2B4F85001B042F0D880B2202814
:1041800004D204EBC00002A9303004E0A4F850517E
:1041900004F1300069460DF060FEB4F85001401C97
:1041A000A4F8500160680028D2D01BF077FA7FBDD8
:1041B000002800D04068704700B503460022FFF792
:1041C000F7FF03E01846521C00F004F80100F9D193
:1041D000104600BD0068091D4058704700684058EF
:1041E0007047002800D08068704700224260C91CD8
:1041F00021F0030182600160704770B504460068D9
:10420000083015F02DF9050013D001460022204694
:104210001CF0FAFA2946204662681CF0EFFA616841
:1042200019B12A4620461CF0EFFA6560A06800B973
:10423000A560284670BD70B504460068083015F0CA
:104240000FF9050013D00146002220461CF0D6FAD3
:1042500029462046A2681CF0D7FAA16819B12A465F
:1042600020461CF0CBFAA560606800B9656028465E
:1042700070BD28B1416809B9806808B10020704755
:104280000120704770B504000DD0FFF791FF0022A8
:104290008842204608D1FFF79DFF6060010001D0F1
:1042A00000221EE0A26070BDFFF79BFF88422068DD
:1042B00008440AD10168A16029B12046BDE87040D8
:1042C00000221CF09BBA626070BD05682046FFF7B3
:1042D00081FF06460246294620461CF08FFA2A46F0
:1042E00031462046BDE870401CF08EBA10B5044639
:1042F000006882680AB1214690472068006800285B
:1043000001D02060F5E710BD8068002801D0B0F929
:10431000160070478068002801D0807E80097047B1
:1043200070B5164605460C4651EA06001AD02846D6
:1043300015F0E4FCA86801233246018A2144018279
:10434000A868418A314441822146284617F0FCFE84
:1043500000220B21284612F0EBF9012803D1284650
:1043600017F04CFE012070BD77B581B00E460500F8
:1043700017D0612217F010FA040012D0206880B123
:1043800028463146622217F007FA10F0FF0208D0E3
:1043900023682046039998470090BDF80000ADF8C7
:1043A0000C00039804B070BD2DE9F047074692B0A9
:1043B000408C1A9E40F00400788490463A849946D6
:1043C0008A463289384617F0E7F90546A7F8209063
:1043D00032895146384617F0DFF90446788CA542F9
:1043E00020F00400788403D12904B1EB044F68D095
:1043F000A7F8208032895146384617F0CDF9054696
:104400008046A7F82090514638460AF0C7FC31890B
:1044100000682A461AF08EF930890B2823D147F616
:10442000FF794D4501D04C451DD1384617F042FB70
:1044300000EBD0704510384616F029FB00EBD07029
:104440004010C84506D1691C431C994200DA00E0BF
:10445000194688464C4506D1691C421C914201DA36
:104460006C1C00E014461948FFF7C7FE05002BD06E
:104470002F60C5E903843089A8806846C5F808A084
:104480000DF096F81248FF21CDE900501148029036
:104490001148039000200890CDE9090130880B9065
:1044A00070889DF8421040420C90F0680790002000
:1044B00060F300018DF842103069069068460DF0F7
:1044C000D3F812B0BDE8F087FEE7000070A301202A
:1044D000196A0208016C02085D6B02081421014888
:1044E000FFF783BE70A301202DE9F84F0025904609
:1044F000894606462C460427E5E000BFF16807EB35
:10450000C400085882017AD480B230EA090211D07E
:104510005FF0000230EA08000ED0002082426ED028
:1045200051F834A06A461021504619F085FE002843
:1045300071D103E00122EDE70120EFE76A46112186
:10454000504619F079FE002865D16A46122150467E
:1045500019F072FE00285ED16A461321504619F008
:104560006BFE002857D16A461521504619F064FEAB
:10457000002850D16A461421504619F05DFEE8BB70
:104580006A460A21504619F057FEB8BB6A466A21AE
:10459000504619F051FE88BB6A466B21504619F00F
:1045A0004BFE58BB6A460121504619F045FE28BB18
:1045B0006A460421504619F03FFEF8B96A460221C6
:1045C000504619F039FEC8B96A460321504619F021
:1045D00033FE98B96A460521504619F02DFE68B998
:1045E0006A460621504619F027FE38B96A4632213C
:1045F000504619F021FE08B96A4601E00BE061E07F
:104600006D21504619F018FE28B96A466C215046B3
:1046100019F012FE10B10320BDE8F88F6A46682138
:10462000504619F009FEE8BB6A466921504619F068
:1046300003FEB8BB6A466D21504619F0FDFD88BBEC
:104640006A466C21504619F0F7FD58BB6A4637217F
:10465000504619F0F1FD28BB6A463821504619F042
:10466000EBFDF8B96A463521504619F0E5FDC8B9A9
:104670006A464021504619F0DFFD98B96A46452147
:10468000504619F0D9FD68B96A464121504619F0E3
:10469000D3FD38B96A464221504619F0CDFD08B91C
:1046A0006A4600E00AE04321504619F0C5FD28B9EA
:1046B0006A464921504619F0BFFD08B1022501E0C4
:1046C00005B90125641C708CC0F3C500A0423FF6FB
:1046D00015AF2846A0E70000014840687047000079
:1046E0004C0500207047C0F30410072800D90720AC
:1046F00070470000A0F57F41FF3905D0002804D0A5
:10470000702803D208490AE01F2070470749703813
:1047100080B2096829B1064A5268904201D2085C09
:104720007047002070470000CC860B0880060020F0
:104730009406002010B518210348FFF756FD0349E1
:104740000120087010BD00001CA301209C06002061
:104750002DE9F04190460C46050015D0FCF758F9BC
:104760000A4F06462146BA68284690470446BA686A
:104770002819414690470146701A03E06218AA5C66
:104780002A55641CA042F9D2BDE8F081B006002091
:104790002DE9F041094D90460E466A681C460746D1
:1047A00019469047306020B120686A68384400217B
:1047B0009047C8F80000BDE8F0810000B006002076
:1047C0002DE9F04F87B00446DDE910581F469346A7
:1047D0008A46002005B1288054B1217841B1BAF150
:1047E000000F05D0002618F0060F15D0002004E0B9
:1047F000002007B0BDE8F08F401C215C0A2904D0DE
:104800000D2902D00029F7D100E0401C002DF0D086
:104810004FF0FF312980ECE75FEA887101D541F65E
:10482000FF7781468DF81400049026E0CDF81890AB
:1048300068B34FF0000C05AA06ABCDF80CC0CDF85C
:104840000080CDE9013220443B465A4651461BF0D8
:1048500061F806997A1A314417B20EB288B10499F8
:104860000144049120780A280BD00D2809D0605CFF
:104870000A280FD00D280DD00846215C09B1002F61
:10488000D4DC049848B105B12E800498B1E74FF00C
:10489000010CD0E7481C0490F3E7074A04A920461E
:1048A000526890470146002DEFD00022504612F08A
:1048B0004BF806B2E8E70000B00600202DE9F04111
:1048C0001746884606001ED0002F1CD0FCF7A0F823
:1048D00004463846FCF79CF8050014D00B4A2C44DB
:1048E0004146926830469047411903E0621BB25C32
:1048F0003255641EA142F9D930442A463946BDE8F2
:10490000F04114F009BFBDE8F0810000B0060020BE
:1049100000230278232902D0012A0DD00FE02AB10A
:104920000021012A04D0022A04D008E0012101E07C
:10493000017004E0017001E0202902D00123184633
:1049400070470221F6E72DE9F0410E468046024607
:104950000021334608461BF01BFA04460027401C82
:1049600014F07EFD050008D02F5533464246611CE9
:104970001BF00EFA2846BDE8F081FEE72DE9F0476E
:104980001E4614460D468246DDF8209015E000BF15
:104990004FEA540808FB0657394650464A469047A6
:1049A000002808DD44F30000C0EB540407EB0605C3
:1049B000A4F1010401E005DA4446002CE8D12046C8
:1049C000BDE8F0873846FBE72DE9FC5F9B460CAB62
:1049D0008A468146DDE9116093E81210DDE90F5740
:1049E0005FEA80784FF030031AD45EB15FEAC07896
:1049F00008D000F00C0858EA0C0803D0761E01E03D
:104A00000B55641CBC4204D2202CF9D301E00B5599
:104A1000641C5FEAC07803D0B44201D2202CF6D3E4
:104A20005FEAC06825D55FEA40580AD44CB1BC4261
:104A300001D0B44205D1641E03D0102D03D1641EF1
:104A400004E0102D02D0022D0AD00EE0850603D41A
:104A5000202C1ED2782506E0202C1AD2582502E000
:104A6000202C16D262250D55641C202C11D20B551A
:104A7000641C202C0DD2BCF1000F01D02D2306E0C8
:104A8000430701D52B2302E0030702D520230B5552
:104A9000641CCDE900BAC846154681468B46AA4635
:104AA000800714D1274607E02A46DDE900316D1C56
:104AB0002020C446E0477F1CB742F5D307E02A46D2
:104AC0006D1C641EDDE900311BF80400C047002C9A
:104AD000F5D15FEA897006D409E02A46DDE90031A4
:104AE0006D1C2020C047A5EB0A00B042F5D3284634
:104AF000BDE8FC9F2DE9F04F8FB099468B46DDE96C
:104B00001818DDE91C63DDE91A4792468646002243
:104B100009B923F01003580507AD00D5C9B1B1FBA1
:104B2000F4F004FB1010C0B20A2801D2303009E0C2
:104B30005FEA836C02D54FF0410C01E04FF0610C4D
:104B400060440A38B1FBF4F1A854521C09B1202A80
:104B5000E5D3CDF80880CDE90563CDE90052CDE974
:104B600003474B46524659467046FFF72DFF0FB09C
:104B7000BDE8F08F2DE9FF4F8FB01CACDDE9239528
:104B800094E8030820AC94E8C004002450EA010231
:104B900001D125F010056A050DF11C0802D550EA77
:104BA000010217D032463B46FBF70FFDD2B20A2A6C
:104BB00001D2303206E0AB0601D5412300E061238B
:104BC0001A440A3A08F80420641C50EA010201D091
:104BD000202CE7D3CDE90084CDF808B0CDE90595C8
:104BE000CDE9036A0FAF97E80F00FFF7EDFE13B0B2
:104BF000BDE8F08F9A4200D28854704770477047E2
:104C0000704700002DE9FF4F89B005460A9800243F
:104C10009246002800D1FE4D8FE1252804D022467F
:104C2000641C53460A990BE2491C4FF000080846E1
:104C30000C9101782B2919D004DC202919D02329C3
:104C400004D119E02D290ED0302909D00026C8B290
:104C5000FEF733FDB0B10CA8FEF718FD06461FE0C5
:104C600048F001010AE048F0020107E048F00401C1
:104C700004E048F0080101E048F01001401C8846BB
:104C80000C90D6E70C9908782A2809D1169840C8C4
:104C90001690002E02DA48F002087642491C0C9168
:104CA0000C984FF0000B01782E2919D1401C0C9064
:104CB00048F480680078FEF700FD20B10CA8FEF7EC
:104CC000E5FC83460CE00C9A10782A2808D1169847
:104CD00002C81690002900DC0021521C8B460C9261
:104CE0000C9801786C290AD004DC68290FD06A2955
:104CF00019D128E0742929D07A2914D126E0401C42
:104D00000C90017848F480786C291CD00BE0401C92
:104D10000C90017848F08008682904D148F04001DF
:104D2000401C88460C9002460078692822D015DC89
:104D300062281FD00DDC252871D050281AD05828A1
:104D40007FF46DAF16E048F40071E9E748F4807134
:104D5000E6E7632878D06428F2D10BE0732874D09A
:104D600004DC6F2806D07028EAD103E0752801D052
:104D70007828E5D178280DD058280BD070280BD092
:104D8000502809D06F2816D0622816D00A2128F0A2
:104D9000100016E0102107E05078102148F48878C0
:104DA000562804D1521C0C921078582807D010783D
:104DB000502804D006E0082109E0022107E048F06D
:104DC000200080461078692803D0642801D028F09C
:104DD0000C085FEA485001D528F0010810786928CE
:104DE0001ED064281CD0562864D05FEA885072D543
:104DF000169804ABC01D002283E806080292CDE994
:104E0000076820F007005346F0E80212CDE90012CF
:104E10001690224628460A99FFF7ACFE89E00AE17F
:104E20005FEA885024D5169804AFC01D20F0070310
:104E3000F3E802021693002387E80A08CDE9076821
:104E4000002A03DA012102E080E0A6E0002100232D
:104E5000029119461B1A914101DA114603E0002123
:104E6000404261EB020153462246CDE90001D1E701
:104E70005FEAC85004D5169804C80FE0524215E006
:104E80005FEA486003D5169810F8042B06E05FEA45
:104E90000860F0D5169830F8042B12B21690CDE9C0
:104EA000021BCDE90468D00F002AE7DDCDE9002020
:104EB00053461EE01698AAEB040202C816904868F2
:104EC000006800900A980B6801192846FFF79AFEBF
:104ED00004442FE0FFE75FEAC8500CD5CDE9021B80
:104EE000CDE9046816980021534604C8CDE9002195
:104EF0001690224619E05FEA486003D5169810F82C
:104F0000042B08E05FEA0860169803D530F8042BFC
:104F100092B200E004C816900020CDE90020CDE94F
:104F2000021BCDE904685346224628460A99FFF73A
:104F3000E1FD04460C98401C0C900C990878002860
:104F40007FF46BAE54457DD222467DE001275FEAB7
:104F5000887006D509E02246641C534620200A9931
:104F6000A84738467F1CB042F5D316992246641CE8
:104F700011F8040B169153460A99A8475FEA887006
:104F800006D4D7E72246641C534620200A99A84736
:104F900038467F1CB042F5D3CCE7169850F8049BF6
:104FA00016904B465FEA0B0001D0014601E04FF03E
:104FB000FF31484600E0401C02780AB1491EFAD28F
:104FC000C71A5FEA485003D558465F4500D30746E5
:104FD0005FEA887006D512E02246641C5346202002
:104FE0000A99A84738467F1CB042F5D307E000BFB6
:104FF000224609F10109641C53460A99A84799F809
:10500000000040B15FEA4851F2D5BBF1010B01E06D
:10501000FD4B0008ECD25FEA887006D48AE722468E
:10502000641C534620200A99A84738467F1CB0428A
:10503000F5D37FE706E02246641C534625200A99F3
:10504000A84777E7AAF10102534600200A99A8472A
:105050000DB02046BDE8F08F30B527480022ADF2F4
:10506000044D0078012817D002283ED0234D032894
:105070001AD0052815D100F0B9FA0446224620A11D
:10508000E86C14F06AF9286D0DF2044D2146BDE874
:10509000304000220DF01FB91B480178002900D0D4
:1050A00002700DF2044D30BD184801780A2901D272
:1050B000491C017016490B78002BF2D00A70017858
:1050C0000A29EED30270E86919F0D0FF034611A255
:1050D0004FF480616846FBF709FB694610A0FBF7B7
:1050E000F9FA6846FDF722FEDBE70DF2044D13A046
:1050F000BDE83040FBF7EEBAE800002014070020BE
:105100002530346400000000EC0000202004002062
:10511000E90000206765745F677074257300000004
:10512000E68BBCE68EA5E5908EE79A84E5AD97E721
:10513000ACA6E4B8B2EFBC9A20257300636865732F
:10514000730000000B78426863F3082242604B78DA
:10515000826863F3410282608B78826863F3CB22BA
:105160008260C978C26A491E61F31752C2627047F1
:1051700000210170417081700121C1707047816808
:1051800041F00801816070478068000701D5012067
:10519000704700207047816841F0040181607047CA
:1051A0008068400701D5012070470020704700004B
:1051B0001F490378D1F8042363F30402C1F80423E0
:1051C0004378D1F8042363F31342C1F804238278AF
:1051D0005207D1F8042302D542F0805201E022F0B8
:1051E0008052C1F804238278D1F8043362F38F33FC
:1051F000C1F80433C378D1F8042363F34D32C1F806
:1052000004230379D1F8042363F30B22C1F80423A8
:105210004379D1F8042363F3D752C1F80423827988
:10522000D1F8040362F39650C1F8040370470000FC
:10523000002001400021017041708170C170017136
:10524000417181717047000030B585B001214FF484
:10525000401002F027FD03A809F0FFFD03208DF8A0
:105260001200012503A93748039509F000FE01212A
:10527000354802F017FD0022114612201BF0CAFA31
:105280006846FFF7D7FF00248DF8004002208DF814
:1052900001008DF804408DF802408DF805408DF82E
:1052A00003408DF806406846FFF782FF02A8FFF72B
:1052B0005FFF8DF808508DF809408DF80A40234CA7
:1052C0008DF80B5002A92046FFF73CFF0021204635
:1052D00000F0BAF8072301220021204600F05EF812
:1052E00000221146204600F096F80021204600F0EA
:1052F0002FF80021204600F030F80121204600F070
:1053000048F801229106204600F038F80121204695
:1053100000F028F84021204600F029F80028F9D0B4
:105320002046FFF72CFF2046FFF72EFF0028FAD17A
:105330002046FFF730FF2046FFF732FF0028FAD162
:1053400005B030BD000002400800440000200140CC
:10535000826861F3082282607047826861F34922A3
:1053600082607047826861F3000282607047024683
:10537000002012680A4200D001207047012A05D09F
:10538000002A02D142688A434260704742680A4359
:10539000FAE7826861F38A228260704770B5072459
:1053A0000A2908D2056901EB4106B440A543B34080
:1053B0002B43036109E0C568A1F10A0606EB460626
:1053C000B440A543B3402B43C3601F230D2A09D328
:1053D000C46A0D3A02EB820293409C439140214300
:1053E000C16270BD072A09D3046BD21F02EB82028F
:1053F00093409C4391402143016370BD446B521E16
:1054000002EB820293409C4391402143416370BD73
:10541000C06C80B2704701F00F030F29816802D978
:1054200041F0004101E021F000418160816863F3B7
:105430001B618160816862F31D71816070478268C1
:1054400061F39E7282607047426861F31962426044
:10545000704710B502004FF000000CD04B1E1942EF
:1054600000D0FEE70A44521E9A43B2F5802F02D2C2
:105470000C2A01D9104610BD0C2010BD08444A1E4C
:10548000401E9043114200D0FEE770472DE9F041E5
:105490000F4601210025044641862E460BE01B499C
:1054A000FBF7F4FB10B16D1CADB202E0608E401C46
:1054B0006086761CB6B257F8260010B10178002934
:1054C000EDD1208EA8421ED0A06A002610B114F0A3
:1054D00053F8A662E06A10B114F04EF8E662E800F4
:1054E00013F0BEFFA06238B1680013F0B9FFE062AC
:1054F00018B1A16A11B102E0FEE7FEE700256900DC
:1055000014F048F92586BDE8F081000094280108D0
:105510002DE9F84F8146407A0F4600F00700022837
:1055200019D010468046974200DD3A4616460320C1
:105530002A4C2B4A00EB460020F00305A0681168B6
:105540001035411A636805EB010C9C4505D2416892
:1055500021F0004124E00846E4E79D4219D8924634
:105560004FF0FF3B48196168884210D90022694614
:105570001C48CDF800B00BF0CBF9002269461A4860
:105580000BF0C6F9A168DAF80000091AEAE7A0688A
:10559000DDE7284613F064FFC0B1416841F00041E7
:1055A00088EA6702416089EA02010160416801F00E
:1055B0004041491C31F0804141608681A0F80E8055
:1055C00005D500F110018160BDE8F88FFEE7A16804
:1055D00001F1100229448260A160F5E7EC06002089
:1055E0007C0600207DD60008950B010810B5084CFC
:1055F00001212046FFF723FF02212046FFF7B7FED7
:105600000028F9D02046BDE81040FFF701BF000098
:105610000020014010B5084C012020700748FEF71B
:10562000C7FD0028A06803D0BDE810401AF036B8C6
:10563000BDE810401AF026B8540600204CA3012003
:1056400010B5044690F84200A16B820709D4B4F863
:1056500040204AB1A2F57F43FF3B1BD0521EA4F865
:105660004020B4F84020AAB909B1820712D52146DA
:105670001448FEF707FEFFF7CDFFE16809B12046A9
:105680008847216909B1204688472046BDE8104077
:1056900013F072BFE26B52422263002911D08207DD
:1056A00002D4626B524222634210521C62F34100E8
:1056B00084F84200A26A206A2262A062E06AE16283
:1056C000A06310BD4CA3012070B5304D686819F07F
:1056D000F1FE0646687880F00100687047E000201F
:1056E000287094F842006978C0F380028A4242D060
:1056F00061F3820084F84200216B8A19030719D4F0
:10570000002917DC002A15DBC00709D1616939B10E
:1057100020468847216A01442162A16A0844A062A8
:10572000A16809B12046884794F8420040F008007B
:1057300084F84200206B8019206316D4E16A884205
:1057400000DD2163E169204688470146606A88429E
:1057500004D0616262680AB120689047D4E90B0105
:10576000814202DB2046FFF76BFF287818B108481A
:10577000FEF71EFD03E021460548FEF72BFD040061
:10578000ADD119F09DFE686070BD00005406002088
:105790004CA3012070B5044640680D4608B1FFF7E0
:1057A000F9FF2268002A04D029462046BDE870404F
:1057B000104770BD2DE9FF4F99B09846DDE926B13D
:1057C0002D9816468A464FF00009042811D0052866
:1057D00011D0062812D0142870D1012702250024E8
:1057E00018FB06F00E901A98401E0D90701E069041
:1057F00051E10027F2E701270325F0E70127022501
:10580000FEF76AFF0068D0F83890E8E72898604310
:105810000BEB2022299860430AEB202110124FEA5B
:10582000212E7DD41A9B98427ADABEF1000F77DBE5
:10583000B64575DAD2B2CBB2802A05DAC2F17F0260
:105840004FF0FF31520003E001215200A2F58072B7
:105850000992802B05DAC3F17F034FF0FF325B0022
:1058600003E001225B00A3F580730A930EFB080C92
:10587000199B0CFB053307934318119372D4DDF881
:1058800034C063456EDC1EEB02036BD4DDF818C038
:10589000634567DCDDF81CC011FB05C1CDE915C10E
:1058A00012FB08F101FB05C10C91D7B32D99052915
:1058B00005D014290BD0062955D066E0EFE01598E5
:1058C000807807900C9881781698807810E0199A63
:1058D0000E990EFB08FC02EB41010A180EFB0811A1
:1058E0001CF802000790119803FB08F3085C995C10
:1058F000079A91420AD00A9A11FB02F20A99C1F55D
:105900008073079911FB0321C1F30721079A904285
:105910000DD0099A10FB02F20998C0F5807301E0DE
:105920002FE035E0079810FB0320C0F30720084460
:105930002C994008085527D015980178407801EB3C
:105940000020ADF80C000C980178407801EB0020A5
:10595000ADF8100016980178407801EB0020ADF802
:10596000080023E04CE0159801881FFA89F0814275
:1059700007D00C990988814203D016990988814281
:1059800003D12C990020085583E0FF210846CEE77B
:1059900015980088ADF80C0016980088ADF808003E
:1059A0000888ADF810002C98FF210155BDF80C00B7
:1059B000BDF81010884209D1BDF80810884205D101
:1059C0002B98BDF80C1000EB440017E00A98C2B207
:1059D000DDE903100DF088FC04900998C2B2DDE9FE
:1059E00002010DF081FC7F22029004990DF07CFCF5
:1059F00000902B98BDF8001000EB4400018048E0B7
:105A0000079B93F800C05B780CEB0323DDF8ACC078
:105A10009BB22CF81430DDF8B4C0BCF1050F06D0F1
:105A2000BCF1060F06D0BCF1140F09D10AE0079BA8
:105A30009B780FE01FFA89FC634501D1002309E040
:105A4000FF2307E0199B0EFB083C0E9B00EB430372
:105A50001CF8033008B9002905DBDDF834C06045C7
:105A600003D1002901DD09980AE0BEF1000F01D140
:105A7000002A04DB06998E4508D1002A06DD0A9823
:105A8000C0F1FF0010FB03F0010A00E000212C9898
:105A90000155641C24B22A988442FFF6B7AE1DB0AB
:105AA000BDE8F08F1CB504460F48012150F82400D2
:105AB00002F0F8F8684609F0D0F901208DF80700E7
:105AC00000218DF804108DF806000748143830F8CE
:105AD0001400009004488DF805100838694650F805
